{
  "_format": "hh-sol-artifact-1",
  "contractName": "SpinWin",
  "sourceName": "src/backend/contracts/Roulette.sol",
  "abi": [
    {
      "inputs": [],
      "stateMutability": "nonpayable",
      "type": "constructor"
    },
    {
      "anonymous": false,
      "inputs": [
        {
          "indexed": true,
          "internalType": "address",
          "name": "previousOwner",
          "type": "address"
        },
        {
          "indexed": true,
          "internalType": "address",
          "name": "newOwner",
          "type": "address"
        }
      ],
      "name": "OwnershipTransferred",
      "type": "event"
    },
    {
      "anonymous": false,
      "inputs": [
        {
          "indexed": false,
          "internalType": "uint256",
          "name": "NumberWin",
          "type": "uint256"
        },
        {
          "indexed": false,
          "internalType": "bool",
          "name": "result",
          "type": "bool"
        },
        {
          "indexed": false,
          "internalType": "uint256",
          "name": "tokensEarned",
          "type": "uint256"
        }
      ],
      "name": "RouletteGame",
      "type": "event"
    },
    {
      "inputs": [
        {
          "internalType": "uint256",
          "name": "_numTokens",
          "type": "uint256"
        }
      ],
      "name": "achatTokens",
      "outputs": [],
      "stateMutability": "payable",
      "type": "function"
    },
    {
      "inputs": [],
      "name": "balanceEthersSC",
      "outputs": [
        {
          "internalType": "uint256",
          "name": "",
          "type": "uint256"
        }
      ],
      "stateMutability": "view",
      "type": "function"
    },
    {
      "inputs": [],
      "name": "getAdress",
      "outputs": [
        {
          "internalType": "address",
          "name": "",
          "type": "address"
        }
      ],
      "stateMutability": "view",
      "type": "function"
    },
    {
      "inputs": [
        {
          "internalType": "uint256",
          "name": "_start",
          "type": "uint256"
        },
        {
          "internalType": "uint256",
          "name": "_end",
          "type": "uint256"
        },
        {
          "internalType": "uint256",
          "name": "_tokensBet",
          "type": "uint256"
        }
      ],
      "name": "jouerroulette",
      "outputs": [],
      "stateMutability": "nonpayable",
      "type": "function"
    },
    {
      "inputs": [],
      "name": "owner",
      "outputs": [
        {
          "internalType": "address",
          "name": "",
          "type": "address"
        }
      ],
      "stateMutability": "view",
      "type": "function"
    },
    {
      "inputs": [
        {
          "internalType": "uint256",
          "name": "_numTokens",
          "type": "uint256"
        }
      ],
      "name": "prixTokens",
      "outputs": [
        {
          "internalType": "uint256",
          "name": "",
          "type": "uint256"
        }
      ],
      "stateMutability": "pure",
      "type": "function"
    },
    {
      "inputs": [],
      "name": "renounceOwnership",
      "outputs": [],
      "stateMutability": "nonpayable",
      "type": "function"
    },
    {
      "inputs": [
        {
          "internalType": "uint256",
          "name": "_numEther",
          "type": "uint256"
        }
      ],
      "name": "retirarEth",
      "outputs": [],
      "stateMutability": "payable",
      "type": "function"
    },
    {
      "inputs": [
        {
          "internalType": "uint256",
          "name": "_numTokens",
          "type": "uint256"
        }
      ],
      "name": "retirerTokens",
      "outputs": [],
      "stateMutability": "payable",
      "type": "function"
    },
    {
      "inputs": [],
      "name": "tokenAddress",
      "outputs": [
        {
          "internalType": "address",
          "name": "",
          "type": "address"
        }
      ],
      "stateMutability": "view",
      "type": "function"
    },
    {
      "inputs": [
        {
          "internalType": "address",
          "name": "_of",
          "type": "address"
        }
      ],
      "name": "tokenBalance",
      "outputs": [
        {
          "internalType": "uint256",
          "name": "",
          "type": "uint256"
        }
      ],
      "stateMutability": "view",
      "type": "function"
    },
    {
      "inputs": [
        {
          "internalType": "address",
          "name": "_owner",
          "type": "address"
        }
      ],
      "name": "tonhistorique",
      "outputs": [
        {
          "components": [
            {
              "internalType": "uint256",
              "name": "tokensBet",
              "type": "uint256"
            },
            {
              "internalType": "uint256",
              "name": "tokensEarned",
              "type": "uint256"
            },
            {
              "internalType": "string",
              "name": "game",
              "type": "string"
            }
          ],
          "internalType": "struct SpinWin.Bet[]",
          "name": "",
          "type": "tuple[]"
        }
      ],
      "stateMutability": "view",
      "type": "function"
    },
    {
      "inputs": [
        {
          "internalType": "address",
          "name": "newOwner",
          "type": "address"
        }
      ],
      "name": "transferOwnership",
      "outputs": [],
      "stateMutability": "nonpayable",
      "type": "function"
    }
  ],
  "bytecode": "0x60806040523480156200001157600080fd5b506200003262000026620001c960201b60201c565b620001d160201b60201c565b604051620000409062000295565b6200004b9062000362565b604051809103906000f08015801562000068573d6000803e3d6000fd5b50600160006101000a81548173ffffffffffffffffffffffffffffffffffffffff021916908373ffffffffffffffffffffffffffffffffffffffff160217905550600160009054906101000a900473ffffffffffffffffffffffffffffffffffffffff16600260006101000a81548173ffffffffffffffffffffffffffffffffffffffff021916908373ffffffffffffffffffffffffffffffffffffffff160217905550600160009054906101000a900473ffffffffffffffffffffffffffffffffffffffff1673ffffffffffffffffffffffffffffffffffffffff1663a0712d68620f42406040518263ffffffff1660e01b81526004016200016c919062000345565b602060405180830381600087803b1580156200018757600080fd5b505af11580156200019c573d6000803e3d6000fd5b505050506040513d601f19601f82011682018060405250810190620001c29190620002ba565b5062000440565b600033905090565b60008060009054906101000a900473ffffffffffffffffffffffffffffffffffffffff169050816000806101000a81548173ffffffffffffffffffffffffffffffffffffffff021916908373ffffffffffffffffffffffffffffffffffffffff1602179055508173ffffffffffffffffffffffffffffffffffffffff168173ffffffffffffffffffffffffffffffffffffffff167f8be0079c531659141344cd1fd0a4f28419497f9722a3daafe3b4186f6b6457e060405160405180910390a35050565b6111e8806200223383390190565b600081519050620002b48162000426565b92915050565b600060208284031215620002cd57600080fd5b6000620002dd84828501620002a3565b91505092915050565b620002f181620003c0565b82525050565b60006200030660078362000399565b91506200031382620003d4565b602082019050919050565b60006200032d60028362000399565b91506200033a82620003fd565b602082019050919050565b60006020820190506200035c6000830184620002e6565b92915050565b600060408201905081810360008301526200037d81620002f7565b9050818103602083015262000392816200031e565b9050919050565b600082825260208201905092915050565b60008115159050919050565b6000819050919050565b6000620003cd82620003b6565b9050919050565b7f5370696e57696e00000000000000000000000000000000000000000000000000600082015250565b7f5357000000000000000000000000000000000000000000000000000000000000600082015250565b6200043181620003aa565b81146200043d57600080fd5b50565b611de380620004506000396000f3fe6080604052600436106100c25760003560e01c80638da5cb5b1161007f578063cfc2b2d211610059578063cfc2b2d21461023c578063eedc966a14610265578063f2fde38b146102a2578063f54f786e146102cb576100c2565b80638da5cb5b146101bb5780639d76ea58146101e6578063b934c38414610211576100c2565b80633897b0bc146100c757806362de4df7146100e3578063699843b7146101205780636b37d3621461013c578063715018a6146101675780638c1b36e91461017e575b600080fd5b6100e160048036038101906100dc91906113fe565b6102e7565b005b3480156100ef57600080fd5b5061010a600480360381019061010591906113fe565b6103cd565b6040516101179190611868565b60405180910390f35b61013a600480360381019061013591906113fe565b6103e9565b005b34801561014857600080fd5b5061015161061d565b60405161015e9190611714565b60405180910390f35b34801561017357600080fd5b5061017c610647565b005b34801561018a57600080fd5b506101a560048036038101906101a091906113ac565b61065b565b6040516101b29190611766565b60405180910390f35b3480156101c757600080fd5b506101d061079f565b6040516101dd9190611714565b60405180910390f35b3480156101f257600080fd5b506101fb6107c8565b6040516102089190611714565b60405180910390f35b34801561021d57600080fd5b506102266107ee565b6040516102339190611868565b60405180910390f35b34801561024857600080fd5b50610263600480360381019061025e9190611450565b610809565b005b34801561027157600080fd5b5061028c600480360381019061028791906113ac565b610ca8565b6040516102999190611868565b60405180910390f35b3480156102ae57600080fd5b506102c960048036038101906102c491906113ac565b610d5c565b005b6102e560048036038101906102e091906113fe565b610de0565b005b6102ef6110a9565b60008111610332576040517f08c379a0000000000000000000000000000000000000000000000000000000008152600401610329906117a8565b60405180910390fd5b61033a6107ee565b81111561037c576040517f08c379a000000000000000000000000000000000000000000000000000000000815260040161037390611848565b60405180910390fd5b61038461079f565b73ffffffffffffffffffffffffffffffffffffffff166108fc829081150290604051600060405180830381858888f193505050501580156103c9573d6000803e3d6000fd5b5050565b600066038d7ea4c68000826103e29190611951565b9050919050565b6000811161042c576040517f08c379a000000000000000000000000000000000000000000000000000000000815260040161042390611788565b60405180910390fd5b600160009054906101000a900473ffffffffffffffffffffffffffffffffffffffff1673ffffffffffffffffffffffffffffffffffffffff166370a08231336040518263ffffffff1660e01b81526004016104879190611714565b60206040518083038186803b15801561049f57600080fd5b505afa1580156104b3573d6000803e3d6000fd5b505050506040513d601f19601f820116820180604052508101906104d79190611427565b811115610519576040517f08c379a000000000000000000000000000000000000000000000000000000000815260040161051090611808565b60405180910390fd5b600160009054906101000a900473ffffffffffffffffffffffffffffffffffffffff1673ffffffffffffffffffffffffffffffffffffffff1663beabacc83330846040518463ffffffff1660e01b81526004016105789392919061172f565b602060405180830381600087803b15801561059257600080fd5b505af11580156105a6573d6000803e3d6000fd5b505050506040513d601f19601f820116820180604052508101906105ca91906113d5565b503373ffffffffffffffffffffffffffffffffffffffff166108fc6105ee836103cd565b9081150290604051600060405180830381858888f19350505050158015610619573d6000803e3d6000fd5b5050565b6000600160009054906101000a900473ffffffffffffffffffffffffffffffffffffffff16905090565b61064f6110a9565b6106596000611127565b565b6060600360008373ffffffffffffffffffffffffffffffffffffffff1673ffffffffffffffffffffffffffffffffffffffff168152602001908152602001600020805480602002602001604051908101604052809291908181526020016000905b828210156107945783829060005260206000209060030201604051806060016040529081600082015481526020016001820154815260200160028201805461070390611a5a565b80601f016020809104026020016040519081016040528092919081815260200182805461072f90611a5a565b801561077c5780601f106107515761010080835404028352916020019161077c565b820191906000526020600020905b81548152906001019060200180831161075f57829003601f168201915b505050505081525050815260200190600101906106bc565b505050509050919050565b60008060009054906101000a900473ffffffffffffffffffffffffffffffffffffffff16905090565b600260009054906101000a900473ffffffffffffffffffffffffffffffffffffffff1681565b6000670de0b6b3a7640000476108049190611920565b905090565b600160009054906101000a900473ffffffffffffffffffffffffffffffffffffffff1673ffffffffffffffffffffffffffffffffffffffff166370a08231336040518263ffffffff1660e01b81526004016108649190611714565b60206040518083038186803b15801561087c57600080fd5b505afa158015610890573d6000803e3d6000fd5b505050506040513d601f19601f820116820180604052508101906108b49190611427565b8111156108c057600080fd5b600081116108cd57600080fd5b6000600e426040516020016108e291906116f9565b6040516020818303038152906040528051906020012060001c6109059190611a96565b9050600080600160009054906101000a900473ffffffffffffffffffffffffffffffffffffffff1673ffffffffffffffffffffffffffffffffffffffff1663beabacc83330876040518463ffffffff1660e01b81526004016109699392919061172f565b602060405180830381600087803b15801561098357600080fd5b505af1158015610997573d6000803e3d6000fd5b505050506040513d601f19601f820116820180604052508101906109bb91906113d5565b508483111580156109cc5750858310155b15610c24576001905060008314156109f257600e846109eb9190611951565b9150610a02565b6002846109ff9190611951565b91505b81600160009054906101000a900473ffffffffffffffffffffffffffffffffffffffff1673ffffffffffffffffffffffffffffffffffffffff166370a08231306040518263ffffffff1660e01b8152600401610a5e9190611714565b60206040518083038186803b158015610a7657600080fd5b505afa158015610a8a573d6000803e3d6000fd5b505050506040513d601f19601f82011682018060405250810190610aae9190611427565b1015610b7157600160009054906101000a900473ffffffffffffffffffffffffffffffffffffffff1673ffffffffffffffffffffffffffffffffffffffff1663a0712d68620186a084610b019190611951565b6040518263ffffffff1660e01b8152600401610b1d9190611868565b602060405180830381600087803b158015610b3757600080fd5b505af1158015610b4b573d6000803e3d6000fd5b505050506040513d601f19601f82011682018060405250810190610b6f91906113d5565b505b600160009054906101000a900473ffffffffffffffffffffffffffffffffffffffff1673ffffffffffffffffffffffffffffffffffffffff1663beabacc83033856040518463ffffffff1660e01b8152600401610bd09392919061172f565b602060405180830381600087803b158015610bea57600080fd5b505af1158015610bfe573d6000803e3d6000fd5b505050506040513d601f19601f82011682018060405250810190610c2291906113d5565b505b610c656040518060400160405280600781526020017f526f756c657465000000000000000000000000000000000000000000000000008152508584336111eb565b7fd25d6b7f2fbc40564b21f40e1d506ff3d5276071da39d3def6b88f6ee8a39659838284604051610c9893929190611883565b60405180910390a1505050505050565b6000600160009054906101000a900473ffffffffffffffffffffffffffffffffffffffff1673ffffffffffffffffffffffffffffffffffffffff166370a08231836040518263ffffffff1660e01b8152600401610d059190611714565b60206040518083038186803b158015610d1d57600080fd5b505afa158015610d31573d6000803e3d6000fd5b505050506040513d601f19601f82011682018060405250810190610d559190611427565b9050919050565b610d646110a9565b600073ffffffffffffffffffffffffffffffffffffffff168173ffffffffffffffffffffffffffffffffffffffff161415610dd4576040517f08c379a0000000000000000000000000000000000000000000000000000000008152600401610dcb906117c8565b60405180910390fd5b610ddd81611127565b50565b610de9816103cd565b341015610e2b576040517f08c379a0000000000000000000000000000000000000000000000000000000008152600401610e22906117e8565b60405180910390fd5b80600160009054906101000a900473ffffffffffffffffffffffffffffffffffffffff1673ffffffffffffffffffffffffffffffffffffffff166370a08231306040518263ffffffff1660e01b8152600401610e879190611714565b60206040518083038186803b158015610e9f57600080fd5b505afa158015610eb3573d6000803e3d6000fd5b505050506040513d601f19601f82011682018060405250810190610ed79190611427565b1015610f9a57600160009054906101000a900473ffffffffffffffffffffffffffffffffffffffff1673ffffffffffffffffffffffffffffffffffffffff1663a0712d68620186a083610f2a9190611951565b6040518263ffffffff1660e01b8152600401610f469190611868565b602060405180830381600087803b158015610f6057600080fd5b505af1158015610f74573d6000803e3d6000fd5b505050506040513d601f19601f82011682018060405250810190610f9891906113d5565b505b3373ffffffffffffffffffffffffffffffffffffffff166108fc610fbd836103cd565b34610fc891906119ab565b9081150290604051600060405180830381858888f19350505050158015610ff3573d6000803e3d6000fd5b50600160009054906101000a900473ffffffffffffffffffffffffffffffffffffffff1673ffffffffffffffffffffffffffffffffffffffff1663beabacc83033846040518463ffffffff1660e01b81526004016110539392919061172f565b602060405180830381600087803b15801561106d57600080fd5b505af1158015611081573d6000803e3d6000fd5b505050506040513d601f19601f820116820180604052508101906110a591906113d5565b5050565b6110b16112ad565b73ffffffffffffffffffffffffffffffffffffffff166110cf61079f565b73ffffffffffffffffffffffffffffffffffffffff1614611125576040517f08c379a000000000000000000000000000000000000000000000000000000000815260040161111c90611828565b60405180910390fd5b565b60008060009054906101000a900473ffffffffffffffffffffffffffffffffffffffff169050816000806101000a81548173ffffffffffffffffffffffffffffffffffffffff021916908373ffffffffffffffffffffffffffffffffffffffff1602179055508173ffffffffffffffffffffffffffffffffffffffff168173ffffffffffffffffffffffffffffffffffffffff167f8be0079c531659141344cd1fd0a4f28419497f9722a3daafe3b4186f6b6457e060405160405180910390a35050565b60006040518060600160405280858152602001848152602001868152509050600360008373ffffffffffffffffffffffffffffffffffffffff1673ffffffffffffffffffffffffffffffffffffffff168152602001908152602001600020819080600181540180825580915050600190039060005260206000209060030201600090919091909150600082015181600001556020820151816001015560408201518160020190805190602001906112a39291906112b5565b5050505050505050565b600033905090565b8280546112c190611a5a565b90600052602060002090601f0160209004810192826112e3576000855561132a565b82601f106112fc57805160ff191683800117855561132a565b8280016001018555821561132a579182015b8281111561132957825182559160200191906001019061130e565b5b509050611337919061133b565b5090565b5b8082111561135457600081600090555060010161133c565b5090565b60008135905061136781611d68565b92915050565b60008151905061137c81611d7f565b92915050565b60008135905061139181611d96565b92915050565b6000815190506113a681611d96565b92915050565b6000602082840312156113be57600080fd5b60006113cc84828501611358565b91505092915050565b6000602082840312156113e757600080fd5b60006113f58482850161136d565b91505092915050565b60006020828403121561141057600080fd5b600061141e84828501611382565b91505092915050565b60006020828403121561143957600080fd5b600061144784828501611397565b91505092915050565b60008060006060848603121561146557600080fd5b600061147386828701611382565b935050602061148486828701611382565b925050604061149586828701611382565b9150509250925092565b60006114ab8383611674565b905092915050565b6114bc816119df565b82525050565b60006114cd826118ca565b6114d781856118ed565b9350836020820285016114e9856118ba565b8060005b858110156115255784840389528151611506858261149f565b9450611511836118e0565b925060208a019950506001810190506114ed565b50829750879550505050505092915050565b611540816119f1565b82525050565b6000611551826118d5565b61155b81856118fe565b935061156b818560208601611a27565b61157481611b54565b840191505092915050565b600061158c60358361190f565b915061159782611b65565b604082019050919050565b60006115af603e8361190f565b91506115ba82611bb4565b604082019050919050565b60006115d260268361190f565b91506115dd82611c03565b604082019050919050565b60006115f560338361190f565b915061160082611c52565b604082019050919050565b600061161860388361190f565b915061162382611ca1565b604082019050919050565b600061163b60208361190f565b915061164682611cf0565b602082019050919050565b600061165e602f8361190f565b915061166982611d19565b604082019050919050565b600060608301600083015161168c60008601826116c4565b50602083015161169f60208601826116c4565b50604083015184820360408601526116b78282611546565b9150508091505092915050565b6116cd81611a1d565b82525050565b6116dc81611a1d565b82525050565b6116f36116ee82611a1d565b611a8c565b82525050565b600061170582846116e2565b60208201915081905092915050565b600060208201905061172960008301846114b3565b92915050565b600060608201905061174460008301866114b3565b61175160208301856114b3565b61175e60408301846116d3565b949350505050565b6000602082019050818103600083015261178081846114c2565b905092915050565b600060208201905081810360008301526117a18161157f565b9050919050565b600060208201905081810360008301526117c1816115a2565b9050919050565b600060208201905081810360008301526117e1816115c5565b9050919050565b60006020820190508181036000830152611801816115e8565b9050919050565b600060208201905081810360008301526118218161160b565b9050919050565b600060208201905081810360008301526118418161162e565b9050919050565b6000602082019050818103600083015261186181611651565b9050919050565b600060208201905061187d60008301846116d3565b92915050565b600060608201905061189860008301866116d3565b6118a56020830185611537565b6118b260408301846116d3565b949350505050565b6000819050602082019050919050565b600081519050919050565b600081519050919050565b6000602082019050919050565b600082825260208201905092915050565b600082825260208201905092915050565b600082825260208201905092915050565b600061192b82611a1d565b915061193683611a1d565b92508261194657611945611af6565b5b828204905092915050565b600061195c82611a1d565b915061196783611a1d565b9250817fffffffffffffffffffffffffffffffffffffffffffffffffffffffffffffffff04831182151516156119a05761199f611ac7565b5b828202905092915050565b60006119b682611a1d565b91506119c183611a1d565b9250828210156119d4576119d3611ac7565b5b828203905092915050565b60006119ea826119fd565b9050919050565b60008115159050919050565b600073ffffffffffffffffffffffffffffffffffffffff82169050919050565b6000819050919050565b60005b83811015611a45578082015181840152602081019050611a2a565b83811115611a54576000848401525b50505050565b60006002820490506001821680611a7257607f821691505b60208210811415611a8657611a85611b25565b5b50919050565b6000819050919050565b6000611aa182611a1d565b9150611aac83611a1d565b925082611abc57611abb611af6565b5b828206905092915050565b7f4e487b7100000000000000000000000000000000000000000000000000000000600052601160045260246000fd5b7f4e487b7100000000000000000000000000000000000000000000000000000000600052601260045260246000fd5b7f4e487b7100000000000000000000000000000000000000000000000000000000600052602260045260246000fd5b6000601f19601f8301169050919050565b7f566f757320646576657a2072656e766f79657220756e206e6f6d62726520646560008201527f206a65746f6e7320737570657269657572206120300000000000000000000000602082015250565b7f496c20657374206e6563657373616972652064652072656e64726520756e206e60008201527f6f6d627265206465206a65746f6e7320737570657269657572206120302e0000602082015250565b7f4f776e61626c653a206e6577206f776e657220697320746865207a65726f206160008201527f6464726573730000000000000000000000000000000000000000000000000000602082015250565b7f4163686574657a206d6f696e73206465206a65746f6e73206f7520706179657a60008201527f206176656320706c757320646574686572732e00000000000000000000000000602082015250565b7f566f7573206e276176657a20706173206c6573206a65746f6e7320717565207660008201527f6f757320736f7568616974657a207265746f75726e65722e0000000000000000602082015250565b7f4f776e61626c653a2063616c6c6572206973206e6f7420746865206f776e6572600082015250565b7f5475206e617320706173206c6573206a65746f6e732071756520747520736f7560008201527f68616974657320726574697265722e0000000000000000000000000000000000602082015250565b611d71816119df565b8114611d7c57600080fd5b50565b611d88816119f1565b8114611d9357600080fd5b50565b611d9f81611a1d565b8114611daa57600080fd5b5056fea26469706673582212205c286fc9f391d0805baf709828212f252408e9860c7e24d93444e2b9f9b116b264736f6c6343000804003360806040523480156200001157600080fd5b50604051620011e8380380620011e88339818101604052810190620000379190620001d4565b81600290805190602001906200004f929190620000b2565b50806003908051906020019062000068929190620000b2565b5033600460006101000a81548173ffffffffffffffffffffffffffffffffffffffff021916908373ffffffffffffffffffffffffffffffffffffffff1602179055505050620003b7565b828054620000c090620002dc565b90600052602060002090601f016020900481019282620000e4576000855562000130565b82601f10620000ff57805160ff191683800117855562000130565b8280016001018555821562000130579182015b828111156200012f57825182559160200191906001019062000112565b5b5090506200013f919062000143565b5090565b5b808211156200015e57600081600090555060010162000144565b5090565b600062000179620001738462000270565b62000247565b9050828152602081018484840111156200019257600080fd5b6200019f848285620002a6565b509392505050565b600082601f830112620001b957600080fd5b8151620001cb84826020860162000162565b91505092915050565b60008060408385031215620001e857600080fd5b600083015167ffffffffffffffff8111156200020357600080fd5b6200021185828601620001a7565b925050602083015167ffffffffffffffff8111156200022f57600080fd5b6200023d85828601620001a7565b9150509250929050565b60006200025362000266565b905062000261828262000312565b919050565b6000604051905090565b600067ffffffffffffffff8211156200028e576200028d62000377565b5b6200029982620003a6565b9050602081019050919050565b60005b83811015620002c6578082015181840152602081019050620002a9565b83811115620002d6576000848401525b50505050565b60006002820490506001821680620002f557607f821691505b602082108114156200030c576200030b62000348565b5b50919050565b6200031d82620003a6565b810181811067ffffffffffffffff821117156200033f576200033e62000377565b5b80604052505050565b7f4e487b7100000000000000000000000000000000000000000000000000000000600052602260045260246000fd5b7f4e487b7100000000000000000000000000000000000000000000000000000000600052604160045260246000fd5b6000601f19601f8301169050919050565b610e2180620003c76000396000f3fe608060405234801561001057600080fd5b50600436106100885760003560e01c80638da5cb5b1161005b5780638da5cb5b1461011757806395d89b4114610135578063a0712d6814610153578063beabacc81461018357610088565b806306fdde031461008d57806318160ddd146100ab578063313ce567146100c957806370a08231146100e7575b600080fd5b6100956101b3565b6040516100a291906109eb565b60405180910390f35b6100b3610245565b6040516100c09190610aad565b60405180910390f35b6100d161024f565b6040516100de9190610ac8565b60405180910390f35b61010160048036038101906100fc91906107f0565b610254565b60405161010e9190610aad565b60405180910390f35b61011f61029c565b60405161012c91906109b5565b60405180910390f35b61013d6102c2565b60405161014a91906109eb565b60405180910390f35b61016d60048036038101906101689190610868565b610354565b60405161017a91906109d0565b60405180910390f35b61019d60048036038101906101989190610819565b6103fb565b6040516101aa91906109d0565b60405180910390f35b6060600280546101c290610bdd565b80601f01602080910402602001604051908101604052809291908181526020018280546101ee90610bdd565b801561023b5780601f106102105761010080835404028352916020019161023b565b820191906000526020600020905b81548152906001019060200180831161021e57829003601f168201915b5050505050905090565b6000600154905090565b600090565b60008060008373ffffffffffffffffffffffffffffffffffffffff1673ffffffffffffffffffffffffffffffffffffffff168152602001908152602001600020549050919050565b600460009054906101000a900473ffffffffffffffffffffffffffffffffffffffff1681565b6060600380546102d190610bdd565b80601f01602080910402602001604051908101604052809291908181526020018280546102fd90610bdd565b801561034a5780601f1061031f5761010080835404028352916020019161034a565b820191906000526020600020905b81548152906001019060200180831161032d57829003601f168201915b5050505050905090565b600033600460009054906101000a900473ffffffffffffffffffffffffffffffffffffffff1673ffffffffffffffffffffffffffffffffffffffff168173ffffffffffffffffffffffffffffffffffffffff16146103e7576040517f08c379a00000000000000000000000000000000000000000000000000000000081526004016103de90610a4d565b60405180910390fd5b6103f13384610413565b6001915050919050565b600061040884848461055b565b600190509392505050565b600073ffffffffffffffffffffffffffffffffffffffff168273ffffffffffffffffffffffffffffffffffffffff161415610483576040517f08c379a000000000000000000000000000000000000000000000000000000000815260040161047a90610a8d565b60405180910390fd5b80600160008282546104959190610aff565b92505081905550806000808473ffffffffffffffffffffffffffffffffffffffff1673ffffffffffffffffffffffffffffffffffffffff16815260200190815260200160002060008282546104ea9190610aff565b925050819055508173ffffffffffffffffffffffffffffffffffffffff16600073ffffffffffffffffffffffffffffffffffffffff167fddf252ad1be2c89b69c2b068fc378daa952ba7f163c4a11628f55a4df523b3ef8360405161054f9190610aad565b60405180910390a35050565b600073ffffffffffffffffffffffffffffffffffffffff168373ffffffffffffffffffffffffffffffffffffffff1614156105cb576040517f08c379a00000000000000000000000000000000000000000000000000000000081526004016105c290610a6d565b60405180910390fd5b600073ffffffffffffffffffffffffffffffffffffffff168273ffffffffffffffffffffffffffffffffffffffff16141561063b576040517f08c379a000000000000000000000000000000000000000000000000000000000815260040161063290610a0d565b60405180910390fd5b60008060008573ffffffffffffffffffffffffffffffffffffffff1673ffffffffffffffffffffffffffffffffffffffff168152602001908152602001600020549050818110156106c1576040517f08c379a00000000000000000000000000000000000000000000000000000000081526004016106b890610a2d565b60405180910390fd5b8181036000808673ffffffffffffffffffffffffffffffffffffffff1673ffffffffffffffffffffffffffffffffffffffff16815260200190815260200160002081905550816000808573ffffffffffffffffffffffffffffffffffffffff1673ffffffffffffffffffffffffffffffffffffffff16815260200190815260200160002060008282546107549190610aff565b925050819055508273ffffffffffffffffffffffffffffffffffffffff168473ffffffffffffffffffffffffffffffffffffffff167fddf252ad1be2c89b69c2b068fc378daa952ba7f163c4a11628f55a4df523b3ef846040516107b89190610aad565b60405180910390a350505050565b6000813590506107d581610dbd565b92915050565b6000813590506107ea81610dd4565b92915050565b60006020828403121561080257600080fd5b6000610810848285016107c6565b91505092915050565b60008060006060848603121561082e57600080fd5b600061083c868287016107c6565b935050602061084d868287016107c6565b925050604061085e868287016107db565b9150509250925092565b60006020828403121561087a57600080fd5b6000610888848285016107db565b91505092915050565b61089a81610b55565b82525050565b6108a981610b67565b82525050565b60006108ba82610ae3565b6108c48185610aee565b93506108d4818560208601610baa565b6108dd81610c6d565b840191505092915050565b60006108f5602383610aee565b915061090082610c7e565b604082019050919050565b6000610918602683610aee565b915061092382610ccd565b604082019050919050565b600061093b601483610aee565b915061094682610d1c565b602082019050919050565b600061095e602583610aee565b915061096982610d45565b604082019050919050565b6000610981601f83610aee565b915061098c82610d94565b602082019050919050565b6109a081610b93565b82525050565b6109af81610b9d565b82525050565b60006020820190506109ca6000830184610891565b92915050565b60006020820190506109e560008301846108a0565b92915050565b60006020820190508181036000830152610a0581846108af565b905092915050565b60006020820190508181036000830152610a26816108e8565b9050919050565b60006020820190508181036000830152610a468161090b565b9050919050565b60006020820190508181036000830152610a668161092e565b9050919050565b60006020820190508181036000830152610a8681610951565b9050919050565b60006020820190508181036000830152610aa681610974565b9050919050565b6000602082019050610ac26000830184610997565b92915050565b6000602082019050610add60008301846109a6565b92915050565b600081519050919050565b600082825260208201905092915050565b6000610b0a82610b93565b9150610b1583610b93565b9250827fffffffffffffffffffffffffffffffffffffffffffffffffffffffffffffffff03821115610b4a57610b49610c0f565b5b828201905092915050565b6000610b6082610b73565b9050919050565b60008115159050919050565b600073ffffffffffffffffffffffffffffffffffffffff82169050919050565b6000819050919050565b600060ff82169050919050565b60005b83811015610bc8578082015181840152602081019050610bad565b83811115610bd7576000848401525b50505050565b60006002820490506001821680610bf557607f821691505b60208210811415610c0957610c08610c3e565b5b50919050565b7f4e487b7100000000000000000000000000000000000000000000000000000000600052601160045260246000fd5b7f4e487b7100000000000000000000000000000000000000000000000000000000600052602260045260246000fd5b6000601f19601f8301169050919050565b7f45524332303a207472616e7366657220746f20746865207a65726f206164647260008201527f6573730000000000000000000000000000000000000000000000000000000000602082015250565b7f45524332303a207472616e7366657220616d6f756e742065786365656473206260008201527f616c616e63650000000000000000000000000000000000000000000000000000602082015250565b7f566f7573206e6574657320706173206f776e6572000000000000000000000000600082015250565b7f45524332303a207472616e736665722066726f6d20746865207a65726f20616460008201527f6472657373000000000000000000000000000000000000000000000000000000602082015250565b7f45524332303a206d696e7420746f20746865207a65726f206164647265737300600082015250565b610dc681610b55565b8114610dd157600080fd5b50565b610ddd81610b93565b8114610de857600080fd5b5056fea26469706673582212205b6486df591451ffe0d9a061a918086d52d72164cd15c3524aecc8e6846f74c864736f6c63430008040033",
  "linkReferences": {},
  "deployedLinkReferences": {}
}